{
  "contractName": "ReceivableAccounts",
  "abi": [
    {
      "inputs": [
        {
          "internalType": "string",
          "name": "arbitralInstitutionName",
          "type": "string"
        }
      ],
      "payable": false,
      "stateMutability": "nonpayable",
      "type": "constructor"
    },
    {
      "anonymous": false,
      "inputs": [
        {
          "indexed": false,
          "internalType": "string",
          "name": "_bName",
          "type": "string"
        },
        {
          "indexed": false,
          "internalType": "string",
          "name": "_cpName",
          "type": "string"
        },
        {
          "indexed": false,
          "internalType": "address",
          "name": "_bAddr",
          "type": "address"
        },
        {
          "indexed": false,
          "internalType": "address",
          "name": "_cpAddr",
          "type": "address"
        },
        {
          "indexed": false,
          "internalType": "uint256",
          "name": "_amount",
          "type": "uint256"
        }
      ],
      "name": "func_bank_giveCreditAssetTo_trustedCompany",
      "type": "event"
    },
    {
      "anonymous": false,
      "inputs": [
        {
          "indexed": false,
          "internalType": "string",
          "name": "_bName",
          "type": "string"
        },
        {
          "indexed": false,
          "internalType": "string",
          "name": "_cpName",
          "type": "string"
        },
        {
          "indexed": false,
          "internalType": "address",
          "name": "_bAddr",
          "type": "address"
        },
        {
          "indexed": false,
          "internalType": "address",
          "name": "_cpAddr",
          "type": "address"
        },
        {
          "indexed": false,
          "internalType": "uint256",
          "name": "_amount",
          "type": "uint256"
        }
      ],
      "name": "func_bank_giveRealMoneyTo_company",
      "type": "event"
    },
    {
      "anonymous": false,
      "inputs": [
        {
          "indexed": false,
          "internalType": "string",
          "name": "_name",
          "type": "string"
        },
        {
          "indexed": false,
          "internalType": "address",
          "name": "_addr",
          "type": "address"
        }
      ],
      "name": "func_bank_login",
      "type": "event"
    },
    {
      "anonymous": false,
      "inputs": [
        {
          "indexed": false,
          "internalType": "string",
          "name": "_name",
          "type": "string"
        },
        {
          "indexed": false,
          "internalType": "address",
          "name": "_addr",
          "type": "address"
        },
        {
          "indexed": false,
          "internalType": "uint256",
          "name": "bankCount",
          "type": "uint256"
        }
      ],
      "name": "func_bank_regist",
      "type": "event"
    },
    {
      "anonymous": false,
      "inputs": [
        {
          "indexed": false,
          "internalType": "string",
          "name": "_cpName_A",
          "type": "string"
        },
        {
          "indexed": false,
          "internalType": "string",
          "name": "_cpName_B",
          "type": "string"
        },
        {
          "indexed": false,
          "internalType": "address",
          "name": "_cpAddr_A",
          "type": "address"
        },
        {
          "indexed": false,
          "internalType": "address",
          "name": "_cpAddr_B",
          "type": "address"
        },
        {
          "indexed": false,
          "internalType": "uint256",
          "name": "_amount",
          "type": "uint256"
        }
      ],
      "name": "func_company_giveCreditAssetTo_company",
      "type": "event"
    },
    {
      "anonymous": false,
      "inputs": [
        {
          "indexed": false,
          "internalType": "string",
          "name": "_name",
          "type": "string"
        },
        {
          "indexed": false,
          "internalType": "address",
          "name": "_addr",
          "type": "address"
        }
      ],
      "name": "func_company_login",
      "type": "event"
    },
    {
      "anonymous": false,
      "inputs": [
        {
          "indexed": false,
          "internalType": "string",
          "name": "_name",
          "type": "string"
        },
        {
          "indexed": false,
          "internalType": "address",
          "name": "_addr",
          "type": "address"
        },
        {
          "indexed": false,
          "internalType": "uint256",
          "name": "companyCount",
          "type": "uint256"
        }
      ],
      "name": "func_company_regist",
      "type": "event"
    },
    {
      "anonymous": false,
      "inputs": [
        {
          "indexed": false,
          "internalType": "string",
          "name": "_cpName",
          "type": "string"
        },
        {
          "indexed": false,
          "internalType": "string",
          "name": "_bName",
          "type": "string"
        },
        {
          "indexed": false,
          "internalType": "address",
          "name": "_cpAddr",
          "type": "address"
        },
        {
          "indexed": false,
          "internalType": "address",
          "name": "_bAddr",
          "type": "address"
        }
      ],
      "name": "func_trustedCompany_finishWith_bank",
      "type": "event"
    },
    {
      "anonymous": false,
      "inputs": [
        {
          "indexed": false,
          "internalType": "string",
          "name": "_cpName",
          "type": "string"
        },
        {
          "indexed": false,
          "internalType": "string",
          "name": "_bName",
          "type": "string"
        },
        {
          "indexed": false,
          "internalType": "address",
          "name": "_cpAddr",
          "type": "address"
        },
        {
          "indexed": false,
          "internalType": "address",
          "name": "_bAddr",
          "type": "address"
        },
        {
          "indexed": false,
          "internalType": "uint256",
          "name": "_amount",
          "type": "uint256"
        }
      ],
      "name": "func_trustedCompany_repayTo_bank",
      "type": "event"
    },
    {
      "constant": true,
      "inputs": [],
      "name": "arbitralInstitution",
      "outputs": [
        {
          "internalType": "string",
          "name": "arbitralName",
          "type": "string"
        },
        {
          "internalType": "address",
          "name": "arbitralInstitutionAddress",
          "type": "address"
        }
      ],
      "payable": false,
      "stateMutability": "view",
      "type": "function"
    },
    {
      "constant": true,
      "inputs": [],
      "name": "bankCount",
      "outputs": [
        {
          "internalType": "uint256",
          "name": "",
          "type": "uint256"
        }
      ],
      "payable": false,
      "stateMutability": "view",
      "type": "function"
    },
    {
      "constant": true,
      "inputs": [
        {
          "internalType": "uint256",
          "name": "",
          "type": "uint256"
        }
      ],
      "name": "bank_addrs",
      "outputs": [
        {
          "internalType": "address",
          "name": "",
          "type": "address"
        }
      ],
      "payable": false,
      "stateMutability": "view",
      "type": "function"
    },
    {
      "constant": true,
      "inputs": [
        {
          "internalType": "address",
          "name": "",
          "type": "address"
        }
      ],
      "name": "banks",
      "outputs": [
        {
          "internalType": "string",
          "name": "bankName",
          "type": "string"
        },
        {
          "internalType": "address",
          "name": "bankAddr",
          "type": "address"
        },
        {
          "internalType": "string",
          "name": "bankKey",
          "type": "string"
        }
      ],
      "payable": false,
      "stateMutability": "view",
      "type": "function"
    },
    {
      "constant": true,
      "inputs": [
        {
          "internalType": "address",
          "name": "",
          "type": "address"
        }
      ],
      "name": "companies",
      "outputs": [
        {
          "internalType": "string",
          "name": "companyName",
          "type": "string"
        },
        {
          "internalType": "address",
          "name": "companyAddr",
          "type": "address"
        },
        {
          "internalType": "string",
          "name": "companyKey",
          "type": "string"
        },
        {
          "internalType": "bool",
          "name": "isTrusted",
          "type": "bool"
        },
        {
          "internalType": "uint256",
          "name": "creditAsset",
          "type": "uint256"
        },
        {
          "internalType": "uint256",
          "name": "realMoney",
          "type": "uint256"
        }
      ],
      "payable": false,
      "stateMutability": "view",
      "type": "function"
    },
    {
      "constant": true,
      "inputs": [],
      "name": "companyCount",
      "outputs": [
        {
          "internalType": "uint256",
          "name": "",
          "type": "uint256"
        }
      ],
      "payable": false,
      "stateMutability": "view",
      "type": "function"
    },
    {
      "constant": true,
      "inputs": [
        {
          "internalType": "uint256",
          "name": "",
          "type": "uint256"
        }
      ],
      "name": "company_addrs",
      "outputs": [
        {
          "internalType": "address",
          "name": "",
          "type": "address"
        }
      ],
      "payable": false,
      "stateMutability": "view",
      "type": "function"
    },
    {
      "constant": true,
      "inputs": [],
      "name": "receiptCount",
      "outputs": [
        {
          "internalType": "uint256",
          "name": "",
          "type": "uint256"
        }
      ],
      "payable": false,
      "stateMutability": "view",
      "type": "function"
    },
    {
      "constant": true,
      "inputs": [
        {
          "internalType": "uint256",
          "name": "",
          "type": "uint256"
        }
      ],
      "name": "receipts",
      "outputs": [
        {
          "internalType": "address",
          "name": "addr_A",
          "type": "address"
        },
        {
          "internalType": "string",
          "name": "name_A",
          "type": "string"
        },
        {
          "internalType": "address",
          "name": "addr_B",
          "type": "address"
        },
        {
          "internalType": "string",
          "name": "name_B",
          "type": "string"
        },
        {
          "internalType": "uint256",
          "name": "amount",
          "type": "uint256"
        },
        {
          "internalType": "bool",
          "name": "bankIn",
          "type": "bool"
        },
        {
          "internalType": "bool",
          "name": "isRealMoney",
          "type": "bool"
        }
      ],
      "payable": false,
      "stateMutability": "view",
      "type": "function"
    },
    {
      "constant": true,
      "inputs": [],
      "name": "trustedCompanyFinishedWithBank",
      "outputs": [
        {
          "internalType": "bool",
          "name": "",
          "type": "bool"
        }
      ],
      "payable": false,
      "stateMutability": "view",
      "type": "function"
    },
    {
      "constant": false,
      "inputs": [
        {
          "internalType": "string",
          "name": "_name",
          "type": "string"
        },
        {
          "internalType": "string",
          "name": "_key",
          "type": "string"
        },
        {
          "internalType": "address",
          "name": "_addr",
          "type": "address"
        },
        {
          "internalType": "bool",
          "name": "_whetherTrusted",
          "type": "bool"
        },
        {
          "internalType": "uint256",
          "name": "_creditAsset",
          "type": "uint256"
        },
        {
          "internalType": "uint256",
          "name": "_realMoney",
          "type": "uint256"
        }
      ],
      "name": "company_regist",
      "outputs": [
        {
          "internalType": "bool",
          "name": "",
          "type": "bool"
        }
      ],
      "payable": false,
      "stateMutability": "nonpayable",
      "type": "function"
    },
    {
      "constant": false,
      "inputs": [
        {
          "internalType": "string",
          "name": "_name",
          "type": "string"
        },
        {
          "internalType": "string",
          "name": "_key",
          "type": "string"
        },
        {
          "internalType": "address",
          "name": "_addr",
          "type": "address"
        }
      ],
      "name": "bank_regist",
      "outputs": [
        {
          "internalType": "bool",
          "name": "",
          "type": "bool"
        }
      ],
      "payable": false,
      "stateMutability": "nonpayable",
      "type": "function"
    },
    {
      "constant": false,
      "inputs": [
        {
          "internalType": "string",
          "name": "_name",
          "type": "string"
        },
        {
          "internalType": "address",
          "name": "_addr",
          "type": "address"
        },
        {
          "internalType": "string",
          "name": "_key",
          "type": "string"
        }
      ],
      "name": "company_login",
      "outputs": [
        {
          "internalType": "bool",
          "name": "",
          "type": "bool"
        }
      ],
      "payable": false,
      "stateMutability": "nonpayable",
      "type": "function"
    },
    {
      "constant": false,
      "inputs": [
        {
          "internalType": "string",
          "name": "_name",
          "type": "string"
        },
        {
          "internalType": "address",
          "name": "_addr",
          "type": "address"
        },
        {
          "internalType": "string",
          "name": "_key",
          "type": "string"
        }
      ],
      "name": "bank_login",
      "outputs": [
        {
          "internalType": "bool",
          "name": "",
          "type": "bool"
        }
      ],
      "payable": false,
      "stateMutability": "nonpayable",
      "type": "function"
    },
    {
      "constant": false,
      "inputs": [
        {
          "internalType": "string",
          "name": "_bName",
          "type": "string"
        },
        {
          "internalType": "string",
          "name": "_cpName",
          "type": "string"
        },
        {
          "internalType": "address",
          "name": "_bAddr",
          "type": "address"
        },
        {
          "internalType": "address",
          "name": "_cpAddr",
          "type": "address"
        },
        {
          "internalType": "uint256",
          "name": "_amount",
          "type": "uint256"
        }
      ],
      "name": "bank_giveCreditAssetTo_trustedCompany",
      "outputs": [
        {
          "internalType": "bool",
          "name": "",
          "type": "bool"
        }
      ],
      "payable": false,
      "stateMutability": "nonpayable",
      "type": "function"
    },
    {
      "constant": false,
      "inputs": [
        {
          "internalType": "string",
          "name": "_cpName_A",
          "type": "string"
        },
        {
          "internalType": "string",
          "name": "_cpName_B",
          "type": "string"
        },
        {
          "internalType": "address",
          "name": "_cpAddr_A",
          "type": "address"
        },
        {
          "internalType": "address",
          "name": "_cpAddr_B",
          "type": "address"
        },
        {
          "internalType": "uint256",
          "name": "_amount",
          "type": "uint256"
        }
      ],
      "name": "company_giveCreditAssetTo_company",
      "outputs": [
        {
          "internalType": "bool",
          "name": "",
          "type": "bool"
        }
      ],
      "payable": false,
      "stateMutability": "nonpayable",
      "type": "function"
    },
    {
      "constant": false,
      "inputs": [
        {
          "internalType": "string",
          "name": "_bName",
          "type": "string"
        },
        {
          "internalType": "string",
          "name": "_cpName",
          "type": "string"
        },
        {
          "internalType": "address",
          "name": "_bAddr",
          "type": "address"
        },
        {
          "internalType": "address",
          "name": "_cpAddr",
          "type": "address"
        },
        {
          "internalType": "uint256",
          "name": "_amount",
          "type": "uint256"
        }
      ],
      "name": "bank_giveRealMoneyTo_company",
      "outputs": [
        {
          "internalType": "bool",
          "name": "",
          "type": "bool"
        }
      ],
      "payable": false,
      "stateMutability": "nonpayable",
      "type": "function"
    },
    {
      "constant": false,
      "inputs": [
        {
          "internalType": "string",
          "name": "_cpName",
          "type": "string"
        },
        {
          "internalType": "string",
          "name": "_bName",
          "type": "string"
        },
        {
          "internalType": "address",
          "name": "_cpAddr",
          "type": "address"
        },
        {
          "internalType": "address",
          "name": "_bAddr",
          "type": "address"
        },
        {
          "internalType": "uint256",
          "name": "_amount",
          "type": "uint256"
        }
      ],
      "name": "trustedCompany_repayTo_bank",
      "outputs": [
        {
          "internalType": "bool",
          "name": "",
          "type": "bool"
        }
      ],
      "payable": false,
      "stateMutability": "nonpayable",
      "type": "function"
    },
    {
      "constant": false,
      "inputs": [
        {
          "internalType": "string",
          "name": "_cpName",
          "type": "string"
        },
        {
          "internalType": "string",
          "name": "_bName",
          "type": "string"
        },
        {
          "internalType": "address",
          "name": "_cpAddr",
          "type": "address"
        },
        {
          "internalType": "address",
          "name": "_bAddr",
          "type": "address"
        }
      ],
      "name": "trustedCompany_finishWith_bank",
      "outputs": [
        {
          "internalType": "bool",
          "name": "",
          "type": "bool"
        }
      ],
      "payable": false,
      "stateMutability": "nonpayable",
      "type": "function"
    },
    {
      "constant": true,
      "inputs": [
        {
          "internalType": "address",
          "name": "_addr",
          "type": "address"
        }
      ],
      "name": "getCompany",
      "outputs": [
        {
          "components": [
            {
              "internalType": "string",
              "name": "companyName",
              "type": "string"
            },
            {
              "internalType": "address",
              "name": "companyAddr",
              "type": "address"
            },
            {
              "internalType": "string",
              "name": "companyKey",
              "type": "string"
            },
            {
              "internalType": "bool",
              "name": "isTrusted",
              "type": "bool"
            },
            {
              "internalType": "uint256",
              "name": "creditAsset",
              "type": "uint256"
            },
            {
              "internalType": "uint256",
              "name": "realMoney",
              "type": "uint256"
            },
            {
              "internalType": "uint256[]",
              "name": "receiptIndex_getCreditAssetFromCompanyOrBank",
              "type": "uint256[]"
            },
            {
              "internalType": "uint256[]",
              "name": "receiptIndex_giveCreditAssetToCompany",
              "type": "uint256[]"
            },
            {
              "internalType": "uint256[]",
              "name": "receiptIndex_getRealMoneyFromBank",
              "type": "uint256[]"
            },
            {
              "internalType": "uint256[]",
              "name": "receiptIndex_repayRealMoneyToBank",
              "type": "uint256[]"
            }
          ],
          "internalType": "struct ReceivableAccounts.Company",
          "name": "",
          "type": "tuple"
        }
      ],
      "payable": false,
      "stateMutability": "view",
      "type": "function"
    },
    {
      "constant": true,
      "inputs": [
        {
          "internalType": "address",
          "name": "_bankAddr",
          "type": "address"
        },
        {
          "internalType": "address",
          "name": "_compAddr",
          "type": "address"
        }
      ],
      "name": "getBankDebt",
      "outputs": [
        {
          "internalType": "uint256",
          "name": "",
          "type": "uint256"
        }
      ],
      "payable": false,
      "stateMutability": "view",
      "type": "function"
    },
    {
      "constant": false,
      "inputs": [
        {
          "internalType": "address",
          "name": "_bankAddr",
          "type": "address"
        }
      ],
      "name": "getBankDebtAmounts",
      "outputs": [
        {
          "internalType": "uint256[]",
          "name": "",
          "type": "uint256[]"
        }
      ],
      "payable": false,
      "stateMutability": "nonpayable",
      "type": "function"
    },
    {
      "constant": true,
      "inputs": [
        {
          "internalType": "address",
          "name": "_bankAddr",
          "type": "address"
        }
      ],
      "name": "getBankDebtCompanys",
      "outputs": [
        {
          "internalType": "address[]",
          "name": "",
          "type": "address[]"
        }
      ],
      "payable": false,
      "stateMutability": "view",
      "type": "function"
    },
    {
      "constant": true,
      "inputs": [
        {
          "internalType": "address",
          "name": "_addr",
          "type": "address"
        }
      ],
      "name": "getBankReceipts",
      "outputs": [
        {
          "internalType": "uint256[]",
          "name": "",
          "type": "uint256[]"
        },
        {
          "internalType": "uint256[]",
          "name": "",
          "type": "uint256[]"
        },
        {
          "internalType": "uint256[]",
          "name": "",
          "type": "uint256[]"
        }
      ],
      "payable": false,
      "stateMutability": "view",
      "type": "function"
    }
  ],
  "bytecode": "0x60806040526000600255600060035560006004556000600a60006101000a81548160ff0219169083151502179055503480156200003b57600080fd5b5060405162005d1338038062005d13833981810160405262000061919081019062000208565b60405180604001604052808281526020013373ffffffffffffffffffffffffffffffffffffffff16815250600080820151816000019080519060200190620000ab929190620000fd565b5060208201518160010160006101000a81548173ffffffffffffffffffffffffffffffffffffffff021916908373ffffffffffffffffffffffffffffffffffffffff16021790555090505050620002de565b828054600181600116156101000203166002900490600052602060002090601f016020900481019282601f106200014057805160ff191683800117855562000171565b8280016001018555821562000171579182015b828111156200017057825182559160200191906001019062000153565b5b50905062000180919062000184565b5090565b620001a991905b80821115620001a55760008160009055506001016200018b565b5090565b90565b600082601f830112620001be57600080fd5b8151620001d5620001cf826200027b565b6200024d565b91508082526020830160208301858383011115620001f257600080fd5b620001ff838284620002a8565b50505092915050565b6000602082840312156200021b57600080fd5b600082015167ffffffffffffffff8111156200023657600080fd5b6200024484828501620001ac565b91505092915050565b6000604051905081810181811067ffffffffffffffff821117156200027157600080fd5b8060405250919050565b600067ffffffffffffffff8211156200029357600080fd5b601f19601f8301169050602081019050919050565b60005b83811015620002c8578082015181840152602081019050620002ab565b83811115620002d8576000848401525b50505050565b615a2580620002ee6000396000f3fe608060405234801561001057600080fd5b50600436106101585760003560e01c80636582f0b2116100c3578063996053ff1161007c578063996053ff146104835780639d134f97146104b5578063c44f7828146104e5578063d22a896514610515578063f879eb5714610545578063f909a46a1461056357610158565b80636582f0b214610385578063742e3af5146103b55780637f038f3c146103e557806380c3b8c2146104035780638e75dd4714610435578063928e87fa1461045357610158565b806321ccdfe11161011557806321ccdfe1146102725780632207906f146102905780632cc3c185146102c0578063355e6ce8146102f0578063365ba84b1461032557806362bc56e61461035557610158565b8063078ab86c1461015d5780630f7ee1ec1461018d5780631158ddc1146101c357806317b1f5ac146101f35780631b8445a11461021257806321ae8a6114610242575b600080fd5b61017760048036036101729190810190614344565b610593565b6040516101849190615208565b60405180910390f35b6101a760048036036101a291908101906144a4565b610ae5565b6040516101ba97969594939291906150fb565b60405180910390f35b6101dd60048036036101d89190810190614344565b610cbe565b6040516101ea9190615208565b60405180910390f35b6101fb611201565b604051610209929190615345565b60405180910390f35b61022c600480360361022791908101906143eb565b6112cb565b6040516102399190615208565b60405180910390f35b61025c6004803603610257919081019061414e565b611855565b6040516102699190615178565b60405180910390f35b61027a611925565b6040516102879190615208565b60405180910390f35b6102aa60048036036102a591908101906142b1565b611938565b6040516102b79190615208565b60405180910390f35b6102da60048036036102d5919081019061414e565b611e2a565b6040516102e7919061519a565b60405180910390f35b61030a6004803603610305919081019061414e565b612007565b60405161031c969594939291906153ba565b60405180910390f35b61033f600480360361033a91908101906141b3565b6121a0565b60405161034c9190615208565b60405180910390f35b61036f600480360361036a919081019061414e565b61242c565b60405161037c9190615769565b60405180910390f35b61039f600480360361039a9190810190614344565b6127af565b6040516103ac9190615208565b60405180910390f35b6103cf60048036036103ca91908101906144a4565b612bfc565b6040516103dc91906150e0565b60405180910390f35b6103ed612c38565b6040516103fa919061578b565b60405180910390f35b61041d6004803603610418919081019061414e565b612c3e565b60405161042c93929190615375565b60405180910390f35b61043d612db8565b60405161044a919061578b565b60405180910390f35b61046d60048036036104689190810190614344565b612dbe565b60405161047a9190615208565b60405180910390f35b61049d6004803603610498919081019061414e565b61320c565b6040516104ac939291906151bc565b60405180910390f35b6104cf60048036036104ca9190810190614177565b6133da565b6040516104dc919061578b565b60405180910390f35b6104ff60048036036104fa91908101906141b3565b613464565b60405161050c9190615208565b60405180910390f35b61052f600480360361052a91908101906144a4565b6136f0565b60405161053c91906150e0565b60405180910390f35b61054d61372c565b60405161055a919061578b565b60405180910390f35b61057d60048036036105789190810190614232565b613732565b60405161058a9190615208565b60405180910390f35b60008082116105d7576040517f08c379a00000000000000000000000000000000000000000000000000000000081526004016105ce90615429565b60405180910390fd5b8373ffffffffffffffffffffffffffffffffffffffff163373ffffffffffffffffffffffffffffffffffffffff1614610645576040517f08c379a000000000000000000000000000000000000000000000000000000000815260040161063c906155e9565b60405180910390fd5b600760008473ffffffffffffffffffffffffffffffffffffffff1673ffffffffffffffffffffffffffffffffffffffff16815260200190815260200160002060000160405161069491906150c9565b60405180910390208580519060200120146106e4576040517f08c379a00000000000000000000000000000000000000000000000000000000081526004016106db906156c9565b60405180910390fd5b600560008573ffffffffffffffffffffffffffffffffffffffff1673ffffffffffffffffffffffffffffffffffffffff16815260200190815260200160002060000160405161073391906150c9565b6040518091039020868051906020012014610783576040517f08c379a000000000000000000000000000000000000000000000000000000000815260040161077a90615449565b60405180910390fd5b60011515600560008673ffffffffffffffffffffffffffffffffffffffff1673ffffffffffffffffffffffffffffffffffffffff16815260200190815260200160002060030160009054906101000a900460ff16151514610819576040517f08c379a0000000000000000000000000000000000000000000000000000000008152600401610810906155c9565b60405180910390fd5b600560008573ffffffffffffffffffffffffffffffffffffffff1673ffffffffffffffffffffffffffffffffffffffff16815260200190815260200160002060040154600760008573ffffffffffffffffffffffffffffffffffffffff1673ffffffffffffffffffffffffffffffffffffffff16815260200190815260200160002060060160008673ffffffffffffffffffffffffffffffffffffffff1673ffffffffffffffffffffffffffffffffffffffff168152602001908152602001600020540382111561091f576040517f08c379a0000000000000000000000000000000000000000000000000000000008152600401610916906154e9565b60405180910390fd5b60006109318787878787600180613cc2565b9050600760008573ffffffffffffffffffffffffffffffffffffffff1673ffffffffffffffffffffffffffffffffffffffff16815260200190815260200160002060050181908060018154018082558091505090600182039060005260206000200160009091929091909150555082600760008673ffffffffffffffffffffffffffffffffffffffff1673ffffffffffffffffffffffffffffffffffffffff16815260200190815260200160002060060160008773ffffffffffffffffffffffffffffffffffffffff1673ffffffffffffffffffffffffffffffffffffffff16815260200190815260200160002060008282540392505081905550600560008673ffffffffffffffffffffffffffffffffffffffff1673ffffffffffffffffffffffffffffffffffffffff1681526020019081526020016000206009018190806001815401808255809150509060018203906000526020600020016000909192909190915055507f0f39527b90e336b7b1efd16e01156ebf977bd2e174a73a3c14d44301267581878787878787604051610acf9594939291906152e4565b60405180910390a1600191505095945050505050565b60098181548110610af257fe5b90600052602060002090600602016000915090508060000160009054906101000a900473ffffffffffffffffffffffffffffffffffffffff1690806001018054600181600116156101000203166002900480601f016020809104026020016040519081016040528092919081815260200182805460018160011615610100020316600290048015610bc45780601f10610b9957610100808354040283529160200191610bc4565b820191906000526020600020905b815481529060010190602001808311610ba757829003601f168201915b5050505050908060020160009054906101000a900473ffffffffffffffffffffffffffffffffffffffff1690806003018054600181600116156101000203166002900480601f016020809104026020016040519081016040528092919081815260200182805460018160011615610100020316600290048015610c885780601f10610c5d57610100808354040283529160200191610c88565b820191906000526020600020905b815481529060010190602001808311610c6b57829003601f168201915b5050505050908060040154908060050160009054906101000a900460ff16908060050160019054906101000a900460ff16905087565b6000808211610d02576040517f08c379a0000000000000000000000000000000000000000000000000000000008152600401610cf990615429565b60405180910390fd5b3373ffffffffffffffffffffffffffffffffffffffff168473ffffffffffffffffffffffffffffffffffffffff1614610d70576040517f08c379a0000000000000000000000000000000000000000000000000000000008152600401610d6790615549565b60405180910390fd5b600760008573ffffffffffffffffffffffffffffffffffffffff1673ffffffffffffffffffffffffffffffffffffffff168152602001908152602001600020600001604051610dbf91906150c9565b6040518091039020868051906020012014610e0f576040517f08c379a0000000000000000000000000000000000000000000000000000000008152600401610e06906156c9565b60405180910390fd5b600560008473ffffffffffffffffffffffffffffffffffffffff1673ffffffffffffffffffffffffffffffffffffffff168152602001908152602001600020600001604051610e5e91906150c9565b6040518091039020858051906020012014610eae576040517f08c379a0000000000000000000000000000000000000000000000000000000008152600401610ea590615449565b60405180910390fd5b60011515600560008573ffffffffffffffffffffffffffffffffffffffff1673ffffffffffffffffffffffffffffffffffffffff16815260200190815260200160002060030160009054906101000a900460ff16151514610f44576040517f08c379a0000000000000000000000000000000000000000000000000000000008152600401610f3b90615629565b60405180910390fd5b6000610f57878787878760016000613cc2565b9050600760008673ffffffffffffffffffffffffffffffffffffffff1673ffffffffffffffffffffffffffffffffffffffff16815260200190815260200160002060040181908060018154018082558091505090600182039060005260206000200160009091929091909150555082600760008773ffffffffffffffffffffffffffffffffffffffff1673ffffffffffffffffffffffffffffffffffffffff16815260200190815260200160002060060160008673ffffffffffffffffffffffffffffffffffffffff1673ffffffffffffffffffffffffffffffffffffffff16815260200190815260200160002060008282540192505081905550600760008673ffffffffffffffffffffffffffffffffffffffff1673ffffffffffffffffffffffffffffffffffffffff1681526020019081526020016000206007018490806001815401808255809150509060018203906000526020600020016000909192909190916101000a81548173ffffffffffffffffffffffffffffffffffffffff021916908373ffffffffffffffffffffffffffffffffffffffff1602179055505082600560008673ffffffffffffffffffffffffffffffffffffffff1673ffffffffffffffffffffffffffffffffffffffff16815260200190815260200160002060040160008282540192505081905550600560008573ffffffffffffffffffffffffffffffffffffffff1673ffffffffffffffffffffffffffffffffffffffff1681526020019081526020016000206006018190806001815401808255809150509060018203906000526020600020016000909192909190915055507f1f84545c12ad504fb82a7d345909268d8b4b715496629f32268a2dcaae3acf9b87878787876040516111eb9594939291906152e4565b60405180910390a1600191505095945050505050565b6000806000018054600181600116156101000203166002900480601f01602080910402602001604051908101604052809291908181526020018280546001816001161561010002031660029004801561129b5780601f106112705761010080835404028352916020019161129b565b820191906000526020600020905b81548152906001019060200180831161127e57829003601f168201915b5050505050908060010160009054906101000a900473ffffffffffffffffffffffffffffffffffffffff16905082565b60008060009050600060010160009054906101000a900473ffffffffffffffffffffffffffffffffffffffff1673ffffffffffffffffffffffffffffffffffffffff163373ffffffffffffffffffffffffffffffffffffffff1614611365576040517f08c379a000000000000000000000000000000000000000000000000000000000815260040161135c90615509565b60405180910390fd5b60008090505b600680549050811015611502576006818154811061138557fe5b9060005260206000200160009054906101000a900473ffffffffffffffffffffffffffffffffffffffff1673ffffffffffffffffffffffffffffffffffffffff168773ffffffffffffffffffffffffffffffffffffffff16141561141e576040517f08c379a000000000000000000000000000000000000000000000000000000000815260040161141590615749565b60405180910390fd5b600560006006838154811061142f57fe5b9060005260206000200160009054906101000a900473ffffffffffffffffffffffffffffffffffffffff1673ffffffffffffffffffffffffffffffffffffffff1673ffffffffffffffffffffffffffffffffffffffff1681526020019081526020016000206000016040516114a491906150c9565b6040518091039020898051906020012014156114f5576040517f08c379a00000000000000000000000000000000000000000000000000000000081526004016114ec906155a9565b60405180910390fd5b808060010191505061136b565b506040518061014001604052808981526020018773ffffffffffffffffffffffffffffffffffffffff1681526020018881526020018615158152602001858152602001848152602001600060405190808252806020026020018201604052801561157b5781602001602082028038833980820191505090505b50815260200160006040519080825280602002602001820160405280156115b15781602001602082028038833980820191505090505b50815260200160006040519080825280602002602001820160405280156115e75781602001602082028038833980820191505090505b508152602001600060405190808252806020026020018201604052801561161d5781602001602082028038833980820191505090505b50815250600560008873ffffffffffffffffffffffffffffffffffffffff1673ffffffffffffffffffffffffffffffffffffffff168152602001908152602001600020600082015181600001908051906020019061167c929190613e91565b5060208201518160010160006101000a81548173ffffffffffffffffffffffffffffffffffffffff021916908373ffffffffffffffffffffffffffffffffffffffff16021790555060408201518160020190805190602001906116e0929190613e91565b5060608201518160030160006101000a81548160ff0219169083151502179055506080820151816004015560a0820151816005015560c0820151816006019080519060200190611731929190613f11565b5060e082015181600701908051906020019061174e929190613f11565b5061010082015181600801908051906020019061176c929190613f11565b5061012082015181600901908051906020019061178a929190613f11565b5090505060068690806001815401808255809150509060018203906000526020600020016000909192909190916101000a81548173ffffffffffffffffffffffffffffffffffffffff021916908373ffffffffffffffffffffffffffffffffffffffff16021790555050600260008154809291906001019190505550600190507f4869679321ff0c3986ac6cf7010e01def1418911be8745e473aa94e7f2e35ab3888760025460405161183f93929190615253565b60405180910390a1809150509695505050505050565b6060600760008373ffffffffffffffffffffffffffffffffffffffff1673ffffffffffffffffffffffffffffffffffffffff16815260200190815260200160002060070180548060200260200160405190810160405280929190818152602001828054801561191957602002820191906000526020600020905b8160009054906101000a900473ffffffffffffffffffffffffffffffffffffffff1673ffffffffffffffffffffffffffffffffffffffff16815260200190600101908083116118cf575b50505050509050919050565b600a60009054906101000a900460ff1681565b6000600760008373ffffffffffffffffffffffffffffffffffffffff1673ffffffffffffffffffffffffffffffffffffffff16815260200190815260200160002060000160405161198991906150c9565b60405180910390208480519060200120146119d9576040517f08c379a00000000000000000000000000000000000000000000000000000000081526004016119d0906156c9565b60405180910390fd5b600560008473ffffffffffffffffffffffffffffffffffffffff1673ffffffffffffffffffffffffffffffffffffffff168152602001908152602001600020600001604051611a2891906150c9565b6040518091039020858051906020012014611a78576040517f08c379a0000000000000000000000000000000000000000000000000000000008152600401611a6f90615449565b60405180910390fd5b60011515600560008573ffffffffffffffffffffffffffffffffffffffff1673ffffffffffffffffffffffffffffffffffffffff16815260200190815260200160002060030160009054906101000a900460ff16151514611b0e576040517f08c379a0000000000000000000000000000000000000000000000000000000008152600401611b0590615529565b60405180910390fd5b600760008373ffffffffffffffffffffffffffffffffffffffff1673ffffffffffffffffffffffffffffffffffffffff16815260200190815260200160002060060160008473ffffffffffffffffffffffffffffffffffffffff1673ffffffffffffffffffffffffffffffffffffffff16815260200190815260200160002054600560008573ffffffffffffffffffffffffffffffffffffffff1673ffffffffffffffffffffffffffffffffffffffff1681526020019081526020016000206004015414611c11576040517f08c379a0000000000000000000000000000000000000000000000000000000008152600401611c0890615469565b60405180910390fd5b8173ffffffffffffffffffffffffffffffffffffffff163373ffffffffffffffffffffffffffffffffffffffff1614611c7f576040517f08c379a0000000000000000000000000000000000000000000000000000000008152600401611c7690615689565b60405180910390fd5b6000600560008573ffffffffffffffffffffffffffffffffffffffff1673ffffffffffffffffffffffffffffffffffffffff1681526020019081526020016000206004015414611d04576040517f08c379a0000000000000000000000000000000000000000000000000000000008152600401611cfb906154a9565b60405180910390fd5b6000600760008473ffffffffffffffffffffffffffffffffffffffff1673ffffffffffffffffffffffffffffffffffffffff16815260200190815260200160002060060160008573ffffffffffffffffffffffffffffffffffffffff1673ffffffffffffffffffffffffffffffffffffffff1681526020019081526020016000205414611dc6576040517f08c379a0000000000000000000000000000000000000000000000000000000008152600401611dbd906154a9565b60405180910390fd5b6001600a60006101000a81548160ff0219169083151502179055507feceb883363ff777e72073c5b768436ac8b6124c29b6d3cad1718afaddb4d98ea85858585604051611e169493929190615291565b60405180910390a160019050949350505050565b606060008090505b600760008473ffffffffffffffffffffffffffffffffffffffff1673ffffffffffffffffffffffffffffffffffffffff16815260200190815260200160002060070180549050811015611f6e576000611f0284600760008773ffffffffffffffffffffffffffffffffffffffff1673ffffffffffffffffffffffffffffffffffffffff1681526020019081526020016000206007018481548110611ed257fe5b9060005260206000200160009054906101000a900473ffffffffffffffffffffffffffffffffffffffff166133da565b905080600760008673ffffffffffffffffffffffffffffffffffffffff1673ffffffffffffffffffffffffffffffffffffffff1681526020019081526020016000206008018381548110611f5257fe5b9060005260206000200181905550508080600101915050611e32565b50600760008373ffffffffffffffffffffffffffffffffffffffff1673ffffffffffffffffffffffffffffffffffffffff168152602001908152602001600020600801805480602002602001604051908101604052809291908181526020018280548015611ffb57602002820191906000526020600020905b815481526020019060010190808311611fe7575b50505050509050919050565b6005602052806000526040600020600091509050806000018054600181600116156101000203166002900480601f0160208091040260200160405190810160405280929190818152602001828054600181600116156101000203166002900480156120b35780601f10612088576101008083540402835291602001916120b3565b820191906000526020600020905b81548152906001019060200180831161209657829003601f168201915b5050505050908060010160009054906101000a900473ffffffffffffffffffffffffffffffffffffffff1690806002018054600181600116156101000203166002900480601f0160208091040260200160405190810160405280929190818152602001828054600181600116156101000203166002900480156121775780601f1061214c57610100808354040283529160200191612177565b820191906000526020600020905b81548152906001019060200180831161215a57829003601f168201915b5050505050908060030160009054906101000a900460ff16908060040154908060050154905086565b600080600090508373ffffffffffffffffffffffffffffffffffffffff163373ffffffffffffffffffffffffffffffffffffffff1614612215576040517f08c379a000000000000000000000000000000000000000000000000000000000815260040161220c906156a9565b60405180910390fd5b600560003373ffffffffffffffffffffffffffffffffffffffff1673ffffffffffffffffffffffffffffffffffffffff16815260200190815260200160002060000160405161226491906150c9565b60405180910390208580519060200120146122b4576040517f08c379a00000000000000000000000000000000000000000000000000000000081526004016122ab90615569565b60405180910390fd5b6060600560008673ffffffffffffffffffffffffffffffffffffffff1673ffffffffffffffffffffffffffffffffffffffff1681526020019081526020016000206002018054600181600116156101000203166002900480601f01602080910402602001604051908101604052809291908181526020018280546001816001161561010002031660029004801561238c5780601f106123615761010080835404028352916020019161238c565b820191906000526020600020905b81548152906001019060200180831161236f57829003601f168201915b5050505050905083805190602001208180519060200120146123e3576040517f08c379a00000000000000000000000000000000000000000000000000000000081526004016123da906156e9565b60405180910390fd5b7ff693838ebc362cf6348a3591fa42f9539e53c7b3a502a6a9a38d716e6bec36758686604051612414929190615223565b60405180910390a16001915081925050509392505050565b612434613f5e565b600560008373ffffffffffffffffffffffffffffffffffffffff1673ffffffffffffffffffffffffffffffffffffffff16815260200190815260200160002060405180610140016040529081600082018054600181600116156101000203166002900480601f0160208091040260200160405190810160405280929190818152602001828054600181600116156101000203166002900480156125185780601f106124ed57610100808354040283529160200191612518565b820191906000526020600020905b8154815290600101906020018083116124fb57829003601f168201915b505050505081526020016001820160009054906101000a900473ffffffffffffffffffffffffffffffffffffffff1673ffffffffffffffffffffffffffffffffffffffff1673ffffffffffffffffffffffffffffffffffffffff168152602001600282018054600181600116156101000203166002900480601f0160208091040260200160405190810160405280929190818152602001828054600181600116156101000203166002900480156126105780601f106125e557610100808354040283529160200191612610565b820191906000526020600020905b8154815290600101906020018083116125f357829003601f168201915b505050505081526020016003820160009054906101000a900460ff1615151515815260200160048201548152602001600582015481526020016006820180548060200260200160405190810160405280929190818152602001828054801561269757602002820191906000526020600020905b815481526020019060010190808311612683575b50505050508152602001600782018054806020026020016040519081016040528092919081815260200182805480156126ef57602002820191906000526020600020905b8154815260200190600101908083116126db575b505050505081526020016008820180548060200260200160405190810160405280929190818152602001828054801561274757602002820191906000526020600020905b815481526020019060010190808311612733575b505050505081526020016009820180548060200260200160405190810160405280929190818152602001828054801561279f57602002820191906000526020600020905b81548152602001906001019080831161278b575b5050505050815250509050919050565b6000848051906020012086805190602001201415612802576040517f08c379a00000000000000000000000000000000000000000000000000000000081526004016127f990615709565b60405180910390fd5b60008211612845576040517f08c379a000000000000000000000000000000000000000000000000000000000815260040161283c90615429565b60405180910390fd5b600560008573ffffffffffffffffffffffffffffffffffffffff1673ffffffffffffffffffffffffffffffffffffffff16815260200190815260200160002060000160405161289491906150c9565b60405180910390208680519060200120146128e4576040517f08c379a00000000000000000000000000000000000000000000000000000000081526004016128db90615609565b60405180910390fd5b600560008473ffffffffffffffffffffffffffffffffffffffff1673ffffffffffffffffffffffffffffffffffffffff16815260200190815260200160002060000160405161293391906150c9565b6040518091039020858051906020012014612983576040517f08c379a000000000000000000000000000000000000000000000000000000000815260040161297a90615649565b60405180910390fd5b81600560008673ffffffffffffffffffffffffffffffffffffffff1673ffffffffffffffffffffffffffffffffffffffff168152602001908152602001600020600401541015612a08576040517f08c379a00000000000000000000000000000000000000000000000000000000081526004016129ff90615589565b60405180910390fd5b6000612a1a8787878787600080613cc2565b905082600560008773ffffffffffffffffffffffffffffffffffffffff1673ffffffffffffffffffffffffffffffffffffffff16815260200190815260200160002060040160008282540392505081905550600560008673ffffffffffffffffffffffffffffffffffffffff1673ffffffffffffffffffffffffffffffffffffffff16815260200190815260200160002060070181908060018154018082558091505090600182039060005260206000200160009091929091909150555082600560008673ffffffffffffffffffffffffffffffffffffffff1673ffffffffffffffffffffffffffffffffffffffff16815260200190815260200160002060040160008282540192505081905550600560008573ffffffffffffffffffffffffffffffffffffffff1673ffffffffffffffffffffffffffffffffffffffff1681526020019081526020016000206006018190806001815401808255809150509060018203906000526020600020016000909192909190915055506000600a60006101000a81548160ff0219169083151502179055507f591639fa0ee56c3a89f54afaaeeb81a521fc5bca70a01e2ce4b6490a3f3668408787878787604051612be69594939291906152e4565b60405180910390a1600191505095945050505050565b60088181548110612c0957fe5b906000526020600020016000915054906101000a900473ffffffffffffffffffffffffffffffffffffffff1681565b60045481565b6007602052806000526040600020600091509050806000018054600181600116156101000203166002900480601f016020809104026020016040519081016040528092919081815260200182805460018160011615610100020316600290048015612cea5780601f10612cbf57610100808354040283529160200191612cea565b820191906000526020600020905b815481529060010190602001808311612ccd57829003601f168201915b5050505050908060010160009054906101000a900473ffffffffffffffffffffffffffffffffffffffff1690806002018054600181600116156101000203166002900480601f016020809104026020016040519081016040528092919081815260200182805460018160011615610100020316600290048015612dae5780601f10612d8357610100808354040283529160200191612dae565b820191906000526020600020905b815481529060010190602001808311612d9157829003601f168201915b5050505050905083565b60025481565b6000808211612e02576040517f08c379a0000000000000000000000000000000000000000000000000000000008152600401612df990615429565b60405180910390fd5b8373ffffffffffffffffffffffffffffffffffffffff163373ffffffffffffffffffffffffffffffffffffffff1614612e70576040517f08c379a0000000000000000000000000000000000000000000000000000000008152600401612e6790615669565b60405180910390fd5b600760008573ffffffffffffffffffffffffffffffffffffffff1673ffffffffffffffffffffffffffffffffffffffff168152602001908152602001600020600001604051612ebf91906150c9565b6040518091039020868051906020012014612f0f576040517f08c379a0000000000000000000000000000000000000000000000000000000008152600401612f06906156c9565b60405180910390fd5b600560008473ffffffffffffffffffffffffffffffffffffffff1673ffffffffffffffffffffffffffffffffffffffff168152602001908152602001600020600001604051612f5e91906150c9565b6040518091039020858051906020012014612fae576040517f08c379a0000000000000000000000000000000000000000000000000000000008152600401612fa590615449565b60405180910390fd5b81600560008573ffffffffffffffffffffffffffffffffffffffff1673ffffffffffffffffffffffffffffffffffffffff168152602001908152602001600020600401541015613033576040517f08c379a000000000000000000000000000000000000000000000000000000000815260040161302a90615489565b60405180910390fd5b60006130458787878787600180613cc2565b9050600760008673ffffffffffffffffffffffffffffffffffffffff1673ffffffffffffffffffffffffffffffffffffffff16815260200190815260200160002060030181908060018154018082558091505090600182039060005260206000200160009091929091909150555082600560008673ffffffffffffffffffffffffffffffffffffffff1673ffffffffffffffffffffffffffffffffffffffff1681526020019081526020016000206004016000828254039250508190555082600560008673ffffffffffffffffffffffffffffffffffffffff1673ffffffffffffffffffffffffffffffffffffffff16815260200190815260200160002060050160008282540192505081905550600560008573ffffffffffffffffffffffffffffffffffffffff1673ffffffffffffffffffffffffffffffffffffffff1681526020019081526020016000206008018190806001815401808255809150509060018203906000526020600020016000909192909190915055507fa65898c5162c5c2931c19068b4994aaa7b65c6ef441ff29c540484cf4ee12fc587878787876040516131f69594939291906152e4565b60405180910390a1600191505095945050505050565b6060806060600760008573ffffffffffffffffffffffffffffffffffffffff1673ffffffffffffffffffffffffffffffffffffffff168152602001908152602001600020600301600760008673ffffffffffffffffffffffffffffffffffffffff1673ffffffffffffffffffffffffffffffffffffffff168152602001908152602001600020600401600760008773ffffffffffffffffffffffffffffffffffffffff1673ffffffffffffffffffffffffffffffffffffffff1681526020019081526020016000206005018280548060200260200160405190810160405280929190818152602001828054801561332257602002820191906000526020600020905b81548152602001906001019080831161330e575b505050505092508180548060200260200160405190810160405280929190818152602001828054801561337457602002820191906000526020600020905b815481526020019060010190808311613360575b50505050509150808054806020026020016040519081016040528092919081815260200182805480156133c657602002820191906000526020600020905b8154815260200190600101908083116133b2575b505050505090509250925092509193909250565b6000600760008473ffffffffffffffffffffffffffffffffffffffff1673ffffffffffffffffffffffffffffffffffffffff16815260200190815260200160002060060160008373ffffffffffffffffffffffffffffffffffffffff1673ffffffffffffffffffffffffffffffffffffffff16815260200190815260200160002054905092915050565b600080600090508373ffffffffffffffffffffffffffffffffffffffff163373ffffffffffffffffffffffffffffffffffffffff16146134d9576040517f08c379a00000000000000000000000000000000000000000000000000000000081526004016134d0906156a9565b60405180910390fd5b600760003373ffffffffffffffffffffffffffffffffffffffff1673ffffffffffffffffffffffffffffffffffffffff16815260200190815260200160002060000160405161352891906150c9565b6040518091039020858051906020012014613578576040517f08c379a000000000000000000000000000000000000000000000000000000000815260040161356f90615569565b60405180910390fd5b6060600760008673ffffffffffffffffffffffffffffffffffffffff1673ffffffffffffffffffffffffffffffffffffffff1681526020019081526020016000206002018054600181600116156101000203166002900480601f0160208091040260200160405190810160405280929190818152602001828054600181600116156101000203166002900480156136505780601f1061362557610100808354040283529160200191613650565b820191906000526020600020905b81548152906001019060200180831161363357829003601f168201915b5050505050905083805190602001208180519060200120146136a7576040517f08c379a000000000000000000000000000000000000000000000000000000000815260040161369e906156e9565b60405180910390fd5b7f49adcc6a1d3b533d496c4e653f2a6fd2428e5f8becca37b8ef90068ba6c0939c86866040516136d8929190615223565b60405180910390a16001915081925050509392505050565b600681815481106136fd57fe5b906000526020600020016000915054906101000a900473ffffffffffffffffffffffffffffffffffffffff1681565b60035481565b60008060009050600060010160009054906101000a900473ffffffffffffffffffffffffffffffffffffffff1673ffffffffffffffffffffffffffffffffffffffff163373ffffffffffffffffffffffffffffffffffffffff16146137cc576040517f08c379a00000000000000000000000000000000000000000000000000000000081526004016137c3906154c9565b60405180910390fd5b60008090505b60088054905081101561396957600881815481106137ec57fe5b9060005260206000200160009054906101000a900473ffffffffffffffffffffffffffffffffffffffff1673ffffffffffffffffffffffffffffffffffffffff168473ffffffffffffffffffffffffffffffffffffffff161415613885576040517f08c379a000000000000000000000000000000000000000000000000000000000815260040161387c90615729565b60405180910390fd5b600760006008838154811061389657fe5b9060005260206000200160009054906101000a900473ffffffffffffffffffffffffffffffffffffffff1673ffffffffffffffffffffffffffffffffffffffff1673ffffffffffffffffffffffffffffffffffffffff16815260200190815260200160002060000160405161390b91906150c9565b60405180910390208680519060200120141561395c576040517f08c379a0000000000000000000000000000000000000000000000000000000008152600401613953906155a9565b60405180910390fd5b80806001019150506137d2565b506040518061010001604052808681526020018473ffffffffffffffffffffffffffffffffffffffff16815260200185815260200160006040519080825280602002602001820160405280156139ce5781602001602082028038833980820191505090505b5081526020016000604051908082528060200260200182016040528015613a045781602001602082028038833980820191505090505b5081526020016000604051908082528060200260200182016040528015613a3a5781602001602082028038833980820191505090505b5081526020016000604051908082528060200260200182016040528015613a705781602001602082028038833980820191505090505b5081526020016000604051908082528060200260200182016040528015613aa65781602001602082028038833980820191505090505b50815250600760008573ffffffffffffffffffffffffffffffffffffffff1673ffffffffffffffffffffffffffffffffffffffff1681526020019081526020016000206000820151816000019080519060200190613b05929190613e91565b5060208201518160010160006101000a81548173ffffffffffffffffffffffffffffffffffffffff021916908373ffffffffffffffffffffffffffffffffffffffff1602179055506040820151816002019080519060200190613b69929190613e91565b506060820151816003019080519060200190613b86929190613f11565b506080820151816004019080519060200190613ba3929190613f11565b5060a0820151816005019080519060200190613bc0929190613f11565b5060c0820151816007019080519060200190613bdd929190613fc9565b5060e0820151816008019080519060200190613bfa929190613f11565b5090505060088390806001815401808255809150509060018203906000526020600020016000909192909190916101000a81548173ffffffffffffffffffffffffffffffffffffffff021916908373ffffffffffffffffffffffffffffffffffffffff16021790555050600360008154809291906001019190505550600190507f6d59582630006357dad85a031c0cbbc5d640d5238cee7ef82211852bc9e155838584600354604051613caf93929190615253565b60405180910390a1809150509392505050565b600060096040518060e001604052808873ffffffffffffffffffffffffffffffffffffffff1681526020018a81526020018773ffffffffffffffffffffffffffffffffffffffff16815260200189815260200186815260200185151581526020018415158152509080600181540180825580915050906001820390600052602060002090600602016000909192909190915060008201518160000160006101000a81548173ffffffffffffffffffffffffffffffffffffffff021916908373ffffffffffffffffffffffffffffffffffffffff1602179055506020820151816001019080519060200190613db7929190613e91565b5060408201518160020160006101000a81548173ffffffffffffffffffffffffffffffffffffffff021916908373ffffffffffffffffffffffffffffffffffffffff1602179055506060820151816003019080519060200190613e1b929190613e91565b506080820151816004015560a08201518160050160006101000a81548160ff02191690831515021790555060c08201518160050160016101000a81548160ff0219169083151502179055505050506004600081548092919060010191905055506001600980549050039050979650505050505050565b828054600181600116156101000203166002900490600052602060002090601f016020900481019282601f10613ed257805160ff1916838001178555613f00565b82800160010185558215613f00579182015b82811115613eff578251825591602001919060010190613ee4565b5b509050613f0d9190614053565b5090565b828054828255906000526020600020908101928215613f4d579160200282015b82811115613f4c578251825591602001919060010190613f31565b5b509050613f5a9190614053565b5090565b60405180610140016040528060608152602001600073ffffffffffffffffffffffffffffffffffffffff168152602001606081526020016000151581526020016000815260200160008152602001606081526020016060815260200160608152602001606081525090565b828054828255906000526020600020908101928215614042579160200282015b828111156140415782518260006101000a81548173ffffffffffffffffffffffffffffffffffffffff021916908373ffffffffffffffffffffffffffffffffffffffff16021790555091602001919060010190613fe9565b5b50905061404f9190614078565b5090565b61407591905b80821115614071576000816000905550600101614059565b5090565b90565b6140b891905b808211156140b457600081816101000a81549073ffffffffffffffffffffffffffffffffffffffff02191690555060010161407e565b5090565b90565b6000813590506140ca8161599d565b92915050565b6000813590506140df816159b4565b92915050565b600082601f8301126140f657600080fd5b8135614109614104826157d3565b6157a6565b9150808252602083016020830185838301111561412557600080fd5b61413083828461594a565b50505092915050565b600081359050614148816159cb565b92915050565b60006020828403121561416057600080fd5b600061416e848285016140bb565b91505092915050565b6000806040838503121561418a57600080fd5b6000614198858286016140bb565b92505060206141a9858286016140bb565b9150509250929050565b6000806000606084860312156141c857600080fd5b600084013567ffffffffffffffff8111156141e257600080fd5b6141ee868287016140e5565b93505060206141ff868287016140bb565b925050604084013567ffffffffffffffff81111561421c57600080fd5b614228868287016140e5565b9150509250925092565b60008060006060848603121561424757600080fd5b600084013567ffffffffffffffff81111561426157600080fd5b61426d868287016140e5565b935050602084013567ffffffffffffffff81111561428a57600080fd5b614296868287016140e5565b92505060406142a7868287016140bb565b9150509250925092565b600080600080608085870312156142c757600080fd5b600085013567ffffffffffffffff8111156142e157600080fd5b6142ed878288016140e5565b945050602085013567ffffffffffffffff81111561430a57600080fd5b614316878288016140e5565b9350506040614327878288016140bb565b9250506060614338878288016140bb565b91505092959194509250565b600080600080600060a0868803121561435c57600080fd5b600086013567ffffffffffffffff81111561437657600080fd5b614382888289016140e5565b955050602086013567ffffffffffffffff81111561439f57600080fd5b6143ab888289016140e5565b94505060406143bc888289016140bb565b93505060606143cd888289016140bb565b92505060806143de88828901614139565b9150509295509295909350565b60008060008060008060c0878903121561440457600080fd5b600087013567ffffffffffffffff81111561441e57600080fd5b61442a89828a016140e5565b965050602087013567ffffffffffffffff81111561444757600080fd5b61445389828a016140e5565b955050604061446489828a016140bb565b945050606061447589828a016140d0565b935050608061448689828a01614139565b92505060a061449789828a01614139565b9150509295509295509295565b6000602082840312156144b657600080fd5b60006144c484828501614139565b91505092915050565b60006144d983836144fd565b60208301905092915050565b60006144f183836150ab565b60208301905092915050565b61450681615902565b82525050565b61451581615902565b82525050565b600061452682615844565b61453081856158a2565b935061453b836157ff565b8060005b8381101561456c57815161455388826144cd565b975061455e8361587b565b92505060018101905061453f565b5085935050505092915050565b60006145848261585a565b61458e81856158c4565b93506145998361581f565b8060005b838110156145ca5781516145b188826144e5565b97506145bc83615895565b92505060018101905061459d565b5085935050505092915050565b60006145e28261584f565b6145ec81856158b3565b93506145f78361580f565b8060005b8381101561462857815161460f88826144e5565b975061461a83615888565b9250506001810190506145fb565b5085935050505092915050565b61463e81615914565b82525050565b61464d81615914565b82525050565b6000815460018116600081146146705760018114614695576146d9565b607f600283041661468181876158d5565b955060ff19831686528086019350506146d9565b600282046146a381876158d5565b95506146ae8561582f565b60005b828110156146d0578154818901526001820191506020810190506146b1565b82880195505050505b505092915050565b60006146ec82615870565b6146f681856158f1565b9350614706818560208601615959565b61470f8161598c565b840191505092915050565b600061472582615865565b61472f81856158e0565b935061473f818560208601615959565b6147488161598c565b840191505092915050565b600061475e82615865565b61476881856158f1565b9350614778818560208601615959565b6147818161598c565b840191505092915050565b60006147996018836158f1565b91507f416d6f756e74206d75737420626520706f7369746976652100000000000000006000830152602082019050919050565b60006147d96019836158f1565b91507f636f6d70616e79206e616d6520646f65736e27742066697421000000000000006000830152602082019050919050565b60006148196025836158f1565b91507f54686520636f6d70616e79207374696c6c2068617320756e726570616964206d60008301527f6f6e6579210000000000000000000000000000000000000000000000000000006020830152604082019050919050565b600061487f602e836158f1565b91507f54686520637265646974206173736574206f662074686520636f6d70616e792060008301527f6973206e6f7420656e6f756768210000000000000000000000000000000000006020830152604082019050919050565b60006148e5600d836158f1565b91507f6e6f742066696e697368656421000000000000000000000000000000000000006000830152602082019050919050565b60006149256030836158f1565b91507f4f6e6c7920617262697472616c20696e737469747574696f6e2063616e20726560008301527f676973742061206e65772062616e6b21000000000000000000000000000000006020830152604082019050919050565b600061498b6026836158f1565b91507f526570617920616d6f756e74206973206d6f7265207468616e20746865206e6560008301527f65646564212000000000000000000000000000000000000000000000000000006020830152604082019050919050565b60006149f16030836158f1565b91507f4f6e6c7920617262697472616c20696e737469747574696f6e2063616e20616460008301527f642061206e657720636f6d70616e7921000000000000000000000000000000006020830152604082019050919050565b6000614a576033836158f1565b91507f4f6e6c79207472757374656420636f6d70616e792063616e2066696e6973682060008301527f627573696e65737320776974682062616e6b21000000000000000000000000006020830152604082019050919050565b6000614abd602e836158f1565b91507f4f6e6c792062616e6b2063616e2061737369676e20637265646974206173736560008301527f7420746f20636f6d70616e7921200000000000000000000000000000000000006020830152604082019050919050565b6000614b236010836158f1565b91507f6e616d6520697320696e76616c696421000000000000000000000000000000006000830152602082019050919050565b6000614b636042836158f1565b91507f54686520637265646974206173736574206f6620636f6d70616e79204120736860008301527f6f756c64206265206d6f7265207468616e20746865206c6f616e20616d6f756e60208301527f74210000000000000000000000000000000000000000000000000000000000006040830152606082019050919050565b6000614bef6018836158f1565b91507f62616e6b206e616d6520616c72656164792065786974732100000000000000006000830152602082019050919050565b6000614c2f6027836158f1565b91507f4f6e6c79207472757374656420636f6d70616e792063616e207265706179207460008301527f6f2062616e6b21000000000000000000000000000000000000000000000000006020830152604082019050919050565b6000614c956019836158f1565b91507f6f6e6c792074686520636f6d70616e792063616e2063616c6c000000000000006000830152602082019050919050565b6000614cd5601b836158f1565b91507f636f6d70616e792041206e616d6520646f65736e2774206669742100000000006000830152602082019050919050565b6000614d156017836158f1565b91507f436f6d70616e79206973206e6f742074727573746564210000000000000000006000830152602082019050919050565b6000614d55601b836158f1565b91507f636f6d70616e792042206e616d6520646f65736e2774206669742100000000006000830152602082019050919050565b6000614d956013836158f1565b91507f6f6e6c792062616e6b2063616e2063616c6c21000000000000000000000000006000830152602082019050919050565b6000614dd56012836158f1565b91507f6f6e6c792062616e6b2063616e2063616c6c00000000000000000000000000006000830152602082019050919050565b6000614e156018836158f1565b91507f4f6e6c792073656e6465722063616e207369676e20696e2100000000000000006000830152602082019050919050565b6000614e556016836158f1565b91507f62616e6b206e616d6520646f65736e27742066697421000000000000000000006000830152602082019050919050565b6000614e95600a836158f1565b91507f77726f6e67206b657921000000000000000000000000000000000000000000006000830152602082019050919050565b6000614ed5602c836158f1565b91507f636f6d70616e79204120616e6420636f6d70616e7920422073686f756c64206260008301527f6520646966666572656e742100000000000000000000000000000000000000006020830152604082019050919050565b6000614f3b6018836158f1565b91507f746869732062616e6b20616c72656164792065786974732e00000000000000006000830152602082019050919050565b6000614f7b601b836158f1565b91507f7468697320636f6d70616e7920616c72656164792065786974732e00000000006000830152602082019050919050565b6000610140830160008301518482036000860152614fcc828261471a565b9150506020830151614fe160208601826144fd565b5060408301518482036040860152614ff9828261471a565b915050606083015161500e6060860182614635565b50608083015161502160808601826150ab565b5060a083015161503460a08601826150ab565b5060c083015184820360c086015261504c82826145d7565b91505060e083015184820360e086015261506682826145d7565b91505061010083015184820361010086015261508282826145d7565b91505061012083015184820361012086015261509e82826145d7565b9150508091505092915050565b6150b481615940565b82525050565b6150c381615940565b82525050565b60006150d58284614653565b915081905092915050565b60006020820190506150f5600083018461450c565b92915050565b600060e082019050615110600083018a61450c565b81810360208301526151228189614753565b9050615131604083018861450c565b81810360608301526151438187614753565b905061515260808301866150ba565b61515f60a0830185614644565b61516c60c0830184614644565b98975050505050505050565b60006020820190508181036000830152615192818461451b565b905092915050565b600060208201905081810360008301526151b48184614579565b905092915050565b600060608201905081810360008301526151d68186614579565b905081810360208301526151ea8185614579565b905081810360408301526151fe8184614579565b9050949350505050565b600060208201905061521d6000830184614644565b92915050565b6000604082019050818103600083015261523d81856146e1565b905061524c602083018461450c565b9392505050565b6000606082019050818103600083015261526d81866146e1565b905061527c602083018561450c565b61528960408301846150ba565b949350505050565b600060808201905081810360008301526152ab81876146e1565b905081810360208301526152bf81866146e1565b90506152ce604083018561450c565b6152db606083018461450c565b95945050505050565b600060a08201905081810360008301526152fe81886146e1565b9050818103602083015261531281876146e1565b9050615321604083018661450c565b61532e606083018561450c565b61533b60808301846150ba565b9695505050505050565b6000604082019050818103600083015261535f8185614753565b905061536e602083018461450c565b9392505050565b6000606082019050818103600083015261538f8186614753565b905061539e602083018561450c565b81810360408301526153b08184614753565b9050949350505050565b600060c08201905081810360008301526153d48189614753565b90506153e3602083018861450c565b81810360408301526153f58187614753565b90506154046060830186614644565b61541160808301856150ba565b61541e60a08301846150ba565b979650505050505050565b600060208201905081810360008301526154428161478c565b9050919050565b60006020820190508181036000830152615462816147cc565b9050919050565b600060208201905081810360008301526154828161480c565b9050919050565b600060208201905081810360008301526154a281614872565b9050919050565b600060208201905081810360008301526154c2816148d8565b9050919050565b600060208201905081810360008301526154e281614918565b9050919050565b600060208201905081810360008301526155028161497e565b9050919050565b60006020820190508181036000830152615522816149e4565b9050919050565b6000602082019050818103600083015261554281614a4a565b9050919050565b6000602082019050818103600083015261556281614ab0565b9050919050565b6000602082019050818103600083015261558281614b16565b9050919050565b600060208201905081810360008301526155a281614b56565b9050919050565b600060208201905081810360008301526155c281614be2565b9050919050565b600060208201905081810360008301526155e281614c22565b9050919050565b6000602082019050818103600083015261560281614c88565b9050919050565b6000602082019050818103600083015261562281614cc8565b9050919050565b6000602082019050818103600083015261564281614d08565b9050919050565b6000602082019050818103600083015261566281614d48565b9050919050565b6000602082019050818103600083015261568281614d88565b9050919050565b600060208201905081810360008301526156a281614dc8565b9050919050565b600060208201905081810360008301526156c281614e08565b9050919050565b600060208201905081810360008301526156e281614e48565b9050919050565b6000602082019050818103600083015261570281614e88565b9050919050565b6000602082019050818103600083015261572281614ec8565b9050919050565b6000602082019050818103600083015261574281614f2e565b9050919050565b6000602082019050818103600083015261576281614f6e565b9050919050565b600060208201905081810360008301526157838184614fae565b905092915050565b60006020820190506157a060008301846150ba565b92915050565b6000604051905081810181811067ffffffffffffffff821117156157c957600080fd5b8060405250919050565b600067ffffffffffffffff8211156157ea57600080fd5b601f19601f8301169050602081019050919050565b6000819050602082019050919050565b6000819050602082019050919050565b6000819050602082019050919050565b60008190508160005260206000209050919050565b600081519050919050565b600081519050919050565b600081519050919050565b600081519050919050565b600081519050919050565b6000602082019050919050565b6000602082019050919050565b6000602082019050919050565b600082825260208201905092915050565b600082825260208201905092915050565b600082825260208201905092915050565b600081905092915050565b600082825260208201905092915050565b600082825260208201905092915050565b600061590d82615920565b9050919050565b60008115159050919050565b600073ffffffffffffffffffffffffffffffffffffffff82169050919050565b6000819050919050565b82818337600083830152505050565b60005b8381101561597757808201518184015260208101905061595c565b83811115615986576000848401525b50505050565b6000601f19601f8301169050919050565b6159a681615902565b81146159b157600080fd5b50565b6159bd81615914565b81146159c857600080fd5b50565b6159d481615940565b81146159df57600080fd5b5056fea365627a7a7231582010ad171f62104e9632c73d293081f959c35536ec83839077f38e137a18839f096c6578706572696d656e74616cf564736f6c63430005100040",
  "source": "pragma solidity >=0.4.0 <0.7.0;\r\npragma experimental ABIEncoderV2;\r\n//import \"../contracts/Console.sol\";\r\n//contract \r\ncontract ReceivableAccounts  {\r\n\r\n  struct Arbitral{\r\n    string arbitralName;                                   //\r\n    address arbitralInstitutionAddress;                    //\r\n  }\r\n\r\n  struct Company{\r\n    string companyName;                                    //\r\n    address companyAddr;                                   //\r\n    string companyKey;                                     //\r\n    bool isTrusted;                                        //\r\n    uint creditAsset;                                      //\r\n    uint realMoney;                                        //\r\n    uint[] receiptIndex_getCreditAssetFromCompanyOrBank;   //\r\n    uint[] receiptIndex_giveCreditAssetToCompany;          //\r\n    uint[] receiptIndex_getRealMoneyFromBank;              //\r\n    uint[] receiptIndex_repayRealMoneyToBank;              //\r\n  }\r\n\r\n  struct Bank{\r\n    string bankName;                                       //\r\n    address bankAddr;                                      //\r\n    string bankKey;                                        //\r\n    uint[] receiptIndex_loanMoneyToCompany;                //\r\n    uint[] receiptIndex_authorizeCreditAssetToCompany;     //\r\n    uint[] receiptIndex_getRepaidMoneyFromTrustedCompany;  //\r\n    mapping (address => uint) companyDebtAmount;           //\r\n    address[] debtCompany;\r\n    uint[] debt;\r\n  }\r\n\r\n\r\n\r\n  struct Receipt{\r\n    address addr_A;                                       //\r\n    string name_A;                                        //\r\n    address addr_B;                                       //\r\n    string name_B;                                        //\r\n    uint amount;                                          //\r\n    bool bankIn;                                          //\r\n    bool isRealMoney;                                     //\r\n  }\r\n\r\n    /*\r\n  struct Receipt_chain{\r\n    bool paid;\r\n    Receipt[] receipts;\r\n  }\r\n    */\r\n    Arbitral public arbitralInstitution;\r\n  //Console imp;\r\n  uint public companyCount = 0;\r\n  uint public bankCount = 0;\r\n  uint public receiptCount = 0;\r\n  mapping (address => Company) public companies;\r\n  //string[] company_names;\r\n  address[] public company_addrs;\r\n  mapping (address => Bank) public banks;\r\n  //string[] bank_names;\r\n  address[] public bank_addrs;\r\n  Receipt[] public receipts;\r\n\r\n  bool public trustedCompanyFinishedWithBank = false;\r\n\r\n  event func_company_login(string _name, address _addr);\r\n  event func_bank_login(string _name, address _addr);\r\n  event func_company_regist(string _name, address _addr, uint companyCount);\r\n  event func_bank_regist(string _name, address _addr, uint bankCount);\r\n\r\n  event func_bank_giveCreditAssetTo_trustedCompany(string _bName, string _cpName, address _bAddr,  address _cpAddr, uint _amount);\r\n  event func_company_giveCreditAssetTo_company(string _cpName_A, string _cpName_B, address _cpAddr_A, address _cpAddr_B, uint _amount);\r\n  event func_bank_giveRealMoneyTo_company(string _bName, string _cpName, address _bAddr, address _cpAddr, uint _amount);\r\n  event func_trustedCompany_repayTo_bank(string _cpName, string _bName, address _cpAddr, address _bAddr, uint _amount);\r\n  event func_trustedCompany_finishWith_bank(string _cpName, string _bName, address _cpAddr, address _bAddr);\r\n\r\n  constructor(string memory arbitralInstitutionName) public {\r\n    arbitralInstitution = Arbitral({\r\n      arbitralName : arbitralInstitutionName,\r\n      arbitralInstitutionAddress : msg.sender\r\n    });\r\n  }\r\n\r\n  //\r\n  function company_regist(string memory _name, string memory _key, address _addr, bool _whetherTrusted,\r\n                uint _creditAsset, uint _realMoney ) public returns (bool){\r\n    bool flag = false;\r\n    require(msg.sender == arbitralInstitution.arbitralInstitutionAddress,\"Only arbitral institution can add a new company!\");\r\n    for(uint i = 0; i < company_addrs.length; i++){\r\n      require(_addr != company_addrs[i], \"this company already exits.\");\r\n      require(keccak256(bytes(_name)) != keccak256(bytes(companies[company_addrs[i]].companyName)), \"bank name already exits!\");\r\n\r\n    }\r\n    companies[_addr] = Company({\r\n      companyName : _name,\r\n      companyAddr : _addr,\r\n      companyKey : _key,\r\n      isTrusted : _whetherTrusted,\r\n\r\n      creditAsset : _creditAsset,\r\n      receiptIndex_getCreditAssetFromCompanyOrBank : new uint[](0),\r\n      receiptIndex_giveCreditAssetToCompany : new uint[](0),\r\n\r\n      realMoney : _realMoney,\r\n      receiptIndex_getRealMoneyFromBank: new uint[](0),\r\n      receiptIndex_repayRealMoneyToBank: new uint[](0)\r\n    });\r\n    company_addrs.push(_addr);\r\n    companyCount ++;\r\n    flag = true;\r\n    emit func_company_regist(_name, _addr, companyCount);\r\n    return flag;\r\n  }\r\n\r\n  //\r\n  function bank_regist(string memory _name, string memory _key, address _addr) public returns (bool){\r\n    bool flag = false;\r\n    require(msg.sender == arbitralInstitution.arbitralInstitutionAddress, \"Only arbitral institution can regist a new bank!\");\r\n    for(uint i = 0; i < bank_addrs.length; i++){\r\n      require(_addr != bank_addrs[i], \"this bank already exits.\");\r\n      require(keccak256(bytes(_name)) != keccak256(bytes(banks[bank_addrs[i]].bankName)), \"bank name already exits!\");\r\n    }\r\n    banks[_addr] = Bank({\r\n      bankName : _name,\r\n      bankAddr : _addr,\r\n      bankKey : _key,\r\n\r\n      receiptIndex_loanMoneyToCompany : new uint[](0),\r\n      receiptIndex_authorizeCreditAssetToCompany : new uint[](0),\r\n      receiptIndex_getRepaidMoneyFromTrustedCompany : new uint[](0),\r\n      debtCompany : new address[](0),\r\n      debt: new uint[](0)\r\n    });\r\n    bank_addrs.push(_addr);\r\n    bankCount ++;\r\n    //log(\"bank name length\",bank_names.length);\r\n    flag = true;\r\n    emit func_bank_regist(_name, _addr, bankCount);\r\n    return flag;\r\n  }\r\n\r\n  //\r\n  function company_login(string memory _name, address _addr, string memory _key) public returns(bool){\r\n    bool flag = false;\r\n    require(msg.sender == _addr,\"Only sender can sign in!\");\r\n    require(keccak256(bytes(_name)) == keccak256(bytes(companies[msg.sender].companyName)), \"name is invalid!\");\r\n    //check key\r\n    string memory key = companies[_addr].companyKey;\r\n    require(keccak256(bytes(key)) == keccak256(bytes(_key)), \"wrong key!\");\r\n    emit func_company_login(_name, _addr);\r\n    flag = true;\r\n    return flag;\r\n  }\r\n\r\n  //\r\n  function bank_login(string memory _name, address  _addr, string memory _key) public returns(bool){\r\n    bool flag = false;\r\n    require(msg.sender == _addr,\"Only sender can sign in!\");\r\n    require(keccak256(bytes(_name)) == keccak256(bytes(banks[msg.sender].bankName)), \"name is invalid!\");\r\n    //check key\r\n    string memory key = banks[_addr].bankKey;\r\n    require(keccak256(bytes(key)) == keccak256(bytes(_key)), \"wrong key!\");\r\n    emit func_bank_login(_name, _addr);\r\n    flag = true;\r\n    return flag;\r\n  }\r\n\r\n  //\r\n  function newReceipt(string memory _nameA, string memory _nameB, address _addrA, address _addrB,\r\n            uint _amount, bool _whetherBankIn, bool _isRealMoney) internal returns(uint){\r\n    receipts.push(Receipt({\r\n      addr_A : _addrA,\r\n      name_A : _nameA,\r\n      addr_B : _addrB,\r\n      name_B : _nameB,\r\n      amount : _amount,\r\n      bankIn : _whetherBankIn,\r\n      isRealMoney : _isRealMoney\r\n    }));\r\n    //log(\"receipts length\", receipts.length);\r\n    receiptCount ++;\r\n    return receipts.length - 1;\r\n  }\r\n\r\n  //\r\n  //\r\n  function bank_giveCreditAssetTo_trustedCompany(string memory _bName, string memory _cpName, address _bAddr,\r\n                          address _cpAddr, uint _amount) public returns(bool){\r\n    require(_amount > 0, \"Amount must be positive!\");\r\n    require(_bAddr == msg.sender, \"Only bank can assign credit asset to company! \");\r\n    require(keccak256(bytes(_bName)) == keccak256(bytes(banks[_bAddr].bankName)), \"bank name doesn't fit!\");\r\n    require(keccak256(bytes(_cpName)) == keccak256(bytes(companies[_cpAddr].companyName)), \"company name doesn't fit!\");\r\n    require(companies[_cpAddr].isTrusted == true, \"Company is not trusted!\");\r\n\r\n    uint currentReceiptIndex = newReceipt(_bName, _cpName, _bAddr, _cpAddr,  _amount, true, false);\r\n\r\n    banks[_bAddr].receiptIndex_authorizeCreditAssetToCompany.push(currentReceiptIndex);\r\n    banks[_bAddr].companyDebtAmount[_cpAddr] += _amount;\r\n    banks[_bAddr].debtCompany.push(_cpAddr);\r\n\r\n    companies[_cpAddr].creditAsset += _amount;\r\n    companies[_cpAddr].receiptIndex_getCreditAssetFromCompanyOrBank.push(currentReceiptIndex);\r\n    emit func_bank_giveCreditAssetTo_trustedCompany(_bName, _cpName, _bAddr, _cpAddr, _amount);\r\n    return true;\r\n  }\r\n\r\n  //\r\n  //\r\n  function company_giveCreditAssetTo_company(string memory _cpName_A, string memory _cpName_B, address _cpAddr_A,\r\n                          address _cpAddr_B, uint _amount) public returns(bool){\r\n    require(keccak256(bytes(_cpName_A)) != keccak256(bytes(_cpName_B)), \"company A and company B should be different!\");\r\n    require(_amount > 0, \"Amount must be positive!\");\r\n    require(keccak256(bytes(_cpName_A)) == keccak256(bytes(companies[_cpAddr_A].companyName)), \"company A name doesn't fit!\");\r\n    require(keccak256(bytes(_cpName_B)) == keccak256(bytes(companies[_cpAddr_B].companyName)), \"company B name doesn't fit!\");\r\n    require(companies[_cpAddr_A].creditAsset >= _amount, \"The credit asset of company A should be more than the loan amount!\");\r\n\r\n    uint currentReceiptIndex = newReceipt(_cpName_A, _cpName_B, _cpAddr_A, _cpAddr_B, _amount, false, false);\r\n\r\n    companies[_cpAddr_A].creditAsset -= _amount;\r\n    companies[_cpAddr_A].receiptIndex_giveCreditAssetToCompany.push(currentReceiptIndex);\r\n\r\n    companies[_cpAddr_B].creditAsset += _amount;\r\n    companies[_cpAddr_B].receiptIndex_getCreditAssetFromCompanyOrBank.push(currentReceiptIndex);\r\n    trustedCompanyFinishedWithBank = false;\r\n    emit func_company_giveCreditAssetTo_company(_cpName_A, _cpName_B, _cpAddr_A, _cpAddr_B, _amount);\r\n    return true;\r\n  }\r\n\r\n  //\r\n  //\r\n  function bank_giveRealMoneyTo_company(string memory _bName, string memory _cpName, address _bAddr, address _cpAddr,\r\n                                        uint _amount) public returns(bool){\r\n    require(_amount > 0, \"Amount must be positive!\");\r\n    require (msg.sender == _bAddr, \"only bank can call!\");\r\n    require(keccak256(bytes(_bName)) == keccak256(bytes(banks[_bAddr].bankName)), \"bank name doesn't fit!\");\r\n    require(keccak256(bytes(_cpName)) == keccak256(bytes(companies[_cpAddr].companyName)), \"company name doesn't fit!\");\r\n    require(companies[_cpAddr].creditAsset >= _amount, \"The credit asset of the company is not enough!\");\r\n\r\n    uint currentReceiptIndex = newReceipt(_bName, _cpName, _bAddr, _cpAddr, _amount, true, true);\r\n\r\n    banks[_bAddr].receiptIndex_loanMoneyToCompany.push(currentReceiptIndex);\r\n\r\n    companies[_cpAddr].creditAsset -= _amount;\r\n    companies[_cpAddr].realMoney += _amount;\r\n    companies[_cpAddr].receiptIndex_getRealMoneyFromBank.push(currentReceiptIndex);\r\n\r\n    emit func_bank_giveRealMoneyTo_company(_bName, _cpName, _bAddr, _cpAddr, _amount);\r\n    return true;\r\n\r\n  }\r\n\r\n  //\r\n  //\r\n  function trustedCompany_repayTo_bank(string memory _cpName, string memory _bName, address _cpAddr,\r\n                                        address _bAddr, uint _amount) public returns(bool){\r\n    require(_amount > 0, \"Amount must be positive!\");\r\n    require(msg.sender == _cpAddr, \"only the company can call\");\r\n    require(keccak256(bytes(_bName)) == keccak256(bytes(banks[_bAddr].bankName)), \"bank name doesn't fit!\");\r\n    require(keccak256(bytes(_cpName)) == keccak256(bytes(companies[_cpAddr].companyName)), \"company name doesn't fit!\");\r\n    require(companies[_cpAddr].isTrusted == true, \"Only trusted company can repay to bank!\");\r\n    require(_amount <= (banks[_bAddr].companyDebtAmount[_cpAddr] - companies[_cpAddr].creditAsset), \"Repay amount is more than the needed! \");\r\n\r\n    uint currentReceiptIndex = newReceipt(_cpName, _bName, _cpAddr, _bAddr, _amount, true, true);\r\n\r\n    banks[_bAddr].receiptIndex_getRepaidMoneyFromTrustedCompany.push(currentReceiptIndex);\r\n    banks[_bAddr].companyDebtAmount[_cpAddr] -= _amount;\r\n\r\n    companies[_cpAddr].receiptIndex_repayRealMoneyToBank.push(currentReceiptIndex);\r\n\r\n    emit func_trustedCompany_repayTo_bank(_cpName, _bName, _cpAddr, _bAddr, _amount);\r\n    return true;\r\n  }\r\n  //\r\n  //\r\n  function trustedCompany_finishWith_bank(string memory _cpName, string memory _bName, address _cpAddr, address _bAddr) public returns(bool) {\r\n    require(keccak256(bytes(_bName)) == keccak256(bytes(banks[_bAddr].bankName)), \"bank name doesn't fit!\");\r\n    require(keccak256(bytes(_cpName)) == keccak256(bytes(companies[_cpAddr].companyName)), \"company name doesn't fit!\");\r\n    require(companies[_cpAddr].isTrusted == true, \"Only trusted company can finish business with bank!\");\r\n    require(companies[_cpAddr].creditAsset == banks[_bAddr].companyDebtAmount[_cpAddr], \"The company still has unrepaid money!\");\r\n    require(msg.sender == _bAddr, \"only bank can call\");\r\n    require(companies[_cpAddr].creditAsset == 0, \"not finished!\");\r\n    require(banks[_bAddr].companyDebtAmount[_cpAddr] == 0, \"not finished!\");\r\n\r\n    trustedCompanyFinishedWithBank = true;\r\n\r\n    emit func_trustedCompany_finishWith_bank(_cpName, _bName, _cpAddr, _bAddr);\r\n    return true;\r\n  }\r\n\r\n  function getCompany(address _addr) public view returns(Company memory){\r\n    return companies[_addr];\r\n  }\r\n\r\nfunction getBankDebt(address _bankAddr, address _compAddr) public view returns(uint){\r\n    return uint(banks[_bankAddr].companyDebtAmount[_compAddr]);\r\n  }\r\n\r\n  function getBankDebtAmounts(address _bankAddr) public returns(uint[] memory){\r\n    for(uint i = 0; i < banks[_bankAddr].debtCompany.length; i++){\r\n      uint deb = getBankDebt(_bankAddr,banks[_bankAddr].debtCompany[i]);\r\n      banks[_bankAddr].debt[i] = deb;\r\n    }\r\n    return banks[_bankAddr].debt;\r\n  }\r\n\r\n  function getBankDebtCompanys(address _bankAddr) public view returns(address[] memory){\r\n    return banks[_bankAddr].debtCompany;\r\n  }\r\n\r\n  function getBankReceipts(address _addr) public view returns(uint[] memory, uint[] memory, uint[] memory){\r\n    return (banks[_addr].receiptIndex_loanMoneyToCompany,\r\n            banks[_addr].receiptIndex_authorizeCreditAssetToCompany,\r\n            banks[_addr].receiptIndex_getRepaidMoneyFromTrustedCompany);\r\n  }\r\n\r\n}",
  "sourcePath": "F:\\Desktop\\bcsc\\contracts\\ReceivableAccounts.sol",
  "compiler": {
    "name": "solc",
    "version": "0.5.16+commit.9c3226ce.Emscripten.clang"
  },
  "schemaVersion": "3.0.23",
  "updatedAt": "2020-04-17T01:50:10.170Z",
  "networkType": "ethereum",
  "devdoc": {
    "methods": {}
  },
  "userdoc": {
    "methods": {}
  }
}